:100000000C9462000C948A000C948A000C948A0070
:100010000C948A000C948A000C948A000C948A0038
:100020000C948A000C948A000C948A000C948A0028
:100030000C948A000C948A000C948A000C948A0018
:100040000C9460020C948A000C94D0020C94AA02C6
:100050000C948A000C948A000C948A000C948A00F8
:100060000C948A000C948A000000000023002600F3
:10007000290000000000240027002A0000000000E2
:10008000250028002B0004040404040404040202D4
:100090000202020203030303030301020408102007
:1000A0004080010204081020010204081020000012
:1000B0000008000201000003040700000000000027
:1000C0000000F60311241FBECFEFD8E0DEBFCDBF86
:1000D00011E0A0E0B1E0E6E5F8E002C005900D9285
:1000E000A836B107D9F722E0A8E6B1E001C01D9219
:1000F000AE30B207E1F710E0C2E6D0E004C02197CD
:10010000FE010E942304C136D107C9F70E940203F1
:100110000C9429040C940000833081F028F4813081
:1001200099F08230A9F008958730A9F08830C9F09D
:100130008430B1F4809180008F7D03C08091800075
:100140008F7780938000089584B58F7784BD08955C
:1001500084B58F7DFBCF8091B0008F778093B00006
:1001600008958091B0008F7DF9CF1F93CF93DF93D7
:10017000E4EBF0E09491E0EAF0E0D491ECE8F0E018
:10018000C491CC23B9F0182F992319F0892F0E941C
:100190008C00EC2FF0E0EE0FFF1FE458FF4FA5910D
:1001A000B4918FB7F894EC91111108C0D095DE236B
:1001B000DC938FBFDF91CF911F910895DE2BF8CF95
:1001C000CF93DF9390E0FC01E656FF4F24918A57CE
:1001D0009F4FFC0184918823D1F090E0880F991FF4
:1001E000FC01EE58FF4FA591B491FC01E458FF4F7C
:1001F000C591D49161110EC09FB7F8948C91E22FF4
:10020000E0958E238C932881E223E8839FBFDF91C2
:10021000CF9108958FB7F894EC91E22BEC938FBFB8
:10022000F6CF3FB7F89480916D0190916E01A09147
:100230006F01B091700126B5A89B05C02F3F19F042
:100240000196A11DB11D3FBFBA2FA92F982F882756
:10025000BC01CD01620F711D811D911D42E0660F31
:10026000771F881F991F4A95D1F70895AF92BF92C3
:10027000CF92DF92EF92FF920F931F93CF93DF9372
:100280006C017B018B01040F151FEB015E01AE18A1
:10029000BF08C017D10759F06991D601ED91FC91C3
:1002A0000190F081E02DC6010995892B79F7C501F0
:1002B000DF91CF911F910F91FF90EF90DF90CF9042
:1002C000BF90AF900895FC01538D448D252F30E0F1
:1002D000842F90E0821B930B541710F0CF96089553
:1002E00001970895FC01918D828D981761F0A28D80
:1002F000AE0FBF2FB11D5D968C91928D9F5F9F7346
:10030000928F90E008958FEF9FEF0895FC01918DFB
:10031000828D981731F0828DE80FF11D858D90E068
:1003200008958FEF9FEF0895FC01918D228D892F05
:1003300090E0805C9F4F821B91098F7399270895ED
:1003400081E791E00E94940121E0892B09F420E0EB
:10035000822F089580E090E0892B29F00E94A0016F
:1003600081110C9400000895FC01A48DA80FB92FF1
:10037000B11DA35ABF4F2C91848D90E001968F73CD
:100380009927848FA689B7892C93A089B1898C91EC
:10039000837080648C93938D848D981306C002883B
:1003A000F389E02D80818F7D80830895EF92FF9205
:1003B0000F931F93CF93DF93EC0181E0888F9B8D88
:1003C0008C8D98131AC0E889F989808185FF15C042
:1003D0009FB7F894EE89FF896083E889F989808165
:1003E0008370806480839FBF81E090E0DF91CF9134
:1003F0001F910F91FF90EF900895F62E0B8D10E056
:100400000F5F1F4F0F731127E02E8C8D8E110CC0C4
:100410000FB607FCFACFE889F989808185FFF5CF0F
:10042000CE010E94B401F1CFEB8DEC0FFD2FF11D39
:10043000E35AFF4FF0829FB7F8940B8FEA89FB894C
:1004400080818062CFCFCF93DF93EC01888D8823AA
:10045000B9F0AA89BB89E889F9898C9185FD03C027
:10046000808186FD0DC00FB607FCF7CF8C9185FF0C
:10047000F2CF808185FFEDCFCE010E94B401E9CF9C
:10048000DF91CF910895CF93DF93FC01019000207D
:10049000E9F73197AF01481B590BBC0181E791E0A7
:1004A0000E943601EC0142E050E062E171E081E738
:1004B00091E00E9436018C0F9D1FDF91CF9108952E
:1004C0001F920F920FB60F9211242F933F938F9389
:1004D0009F93AF93BF938091690190916A01A0911E
:1004E0006B01B0916C013091680123E0230F2D372F
:1004F00058F50196A11DB11D2093680180936901F3
:1005000090936A01A0936B01B0936C0180916D018F
:1005100090916E01A0916F01B09170010196A11DA3
:10052000B11D80936D0190936E01A0936F01B09304
:100530007001BF91AF919F918F913F912F910F903B
:100540000FBE0F901F90189526E8230F0296A11D4D
:10055000B11DD2CF1F920F920FB60F9211242F937D
:100560003F934F935F936F937F938F939F93AF933B
:10057000BF93EF93FF9381E791E00E94B401FF9155
:10058000EF91BF91AF919F918F917F916F915F910B
:100590004F913F912F910F900FBE0F901F90189584
:1005A0001F920F920FB60F9211242F938F939F9348
:1005B000EF93FF93E0918101F09182018081E091BE
:1005C0008701F091880182FD1BC0908180918A0192
:1005D0008F5F8F7320918B01821741F0E0918A0128
:1005E000F0E0EF58FE4F958F80938A01FF91EF91D5
:1005F0009F918F912F910F900FBE0F901F90189584
:100600008081F4CF789484B5826084BD84B58160A4
:1006100084BD85B5826085BD85B5816085BD8091CD
:100620006E00816080936E00109281008091810045
:10063000826080938100809181008160809381003D
:10064000809180008160809380008091B1008460FF
:100650008093B1008091B00081608093B000809160
:100660007A00846080937A0080917A00826080931F
:100670007A0080917A00816080937A0080917A007C
:10068000806880937A001092C10060E082E00E944E
:10069000E00061E086E00E94E00061E086E00E9408
:1006A000E00080E00E94B500E0918101F0918201BC
:1006B00082E08083E0917D01F0917E011082E091E3
:1006C0007F01F09180018FEC808310928901E0918D
:1006D0008501F091860186E08083E0918301F091AD
:1006E0008401808180618083E0918301F0918401A5
:1006F000808188608083E0918301F0918401808112
:1007000080688083E0918301F091840180818F7DF6
:10071000808385E191E00E94430220EB822E20E05D
:10072000922ECCE9D0E008E810E030E0A32E30E0D3
:10073000B32EF4018491FE01E490F801F490FF20BF
:1007400009F44AC081110E948C00EF2DF0E0EE0FF9
:10075000FF1FE859FF4FA591B4918C91E822E1F178
:1007600061E086E00E94E00081E00E94B50088E33D
:1007700091E00E9443020E9411012B013C0184EF91
:10078000C82EDD24D394E12CF12C0E9411016419B0
:10079000750986099709683E734081059105A8F39C
:1007A000F1E0CF1AD108E108F10828EE420E23E06B
:1007B000521E611C711CC114D104E104F10429F71B
:1007C000A114B10409F4B5CF0E94A001882309F453
:1007D000B0CF0E940000ADCF61E086E00E94E00053
:1007E00080E00E94B50080E591E0C3CFE1E7F1E051
:1007F0001382128288EE93E0A0E0B0E084839583B8
:10080000A683B78384E091E09183808385EC90E0B8
:100810009587848784EC90E09787868780EC90E0CA
:10082000918B808B81EC90E0938B828B82EC90E0BB
:10083000958B848B86EC90E0978B868B118E128E35
:10084000138E148E0895EE0FFF1F0590F491E02D86
:060850000994F894FFCFAB
:1008560000000000D60136016301230294017201F3
:1008660086010D0A002D2D2D205069202D3E204E8B
:10087600616E6F202D3E204C617365722062726935
:10088600646765202D2D2D00484947482066726F04
:100896006D205069202D204C61736572204F4E00EB
:1008A6004C4F572066726F6D205069202D204C6189
:0808B600736572204F464600F5
:00000001FF
