:100000000C945D000C9485000C9485000C94850084
:100010000C9485000C9485000C9485000C9485004C
:100020000C9485000C9485000C9485000C9485003C
:100030000C9485000C9485000C9485000C9485002C
:100040000C941C020C9485000C948C020C94660297
:100050000C9485000C9485000C9485000C9485000C
:100060000C9485000C94850000000008000201003B
:100070000003040700000000000000000000000072
:10008000250028002B0000000000240027002A0083
:10009000040404040404040402020202020203032E
:1000A0000303030301020408102040800102040836
:1000B00010200102040810208C0311241FBECFEF72
:1000C000D8E0DEBFCDBF11E0A0E0B1E0E2E8F7E0AC
:1000D00002C005900D92AE36B107D9F722E0AEE628
:1000E000B1E001C01D92A431B207E1F710E0CDE507
:1000F000D0E004C02197FE010E94B903CC35D1079E
:10010000C9F70E94BE020C94BF030C94000090E05B
:10011000FC01EC55FF4F249180579F4FFC018491C7
:10012000882399F090E0880F991FFC01EA57FF4F50
:10013000A591B491FC01E458FF4F859194918FB73C
:10014000F894EC91E22BEC938FBF089590E0FC01C2
:10015000E859FF4F2491FC01EC55FF4F3491FC010D
:10016000E057FF4FE491EE23C9F0222339F023300A
:1001700001F1A8F4213019F1223029F1F0E0EE0F5D
:10018000FF1FE458FF4FA591B4918FB7F894EC91FD
:10019000611126C030953E233C938FBF08952730D0
:1001A000A9F02830C9F0243049F7809180008F7D74
:1001B00003C0809180008F7780938000DFCF84B56B
:1001C0008F7784BDDBCF84B58F7DFBCF8091B0006E
:1001D0008F778093B000D2CF8091B0008F7DF9CF20
:1001E0003E2BDACFAF92BF92CF92DF92EF92FF9287
:1001F0000F931F93CF93DF936C017B018B01040F4F
:10020000151FEB015E01AE18BF08C017D10759F0EA
:100210006991D601ED91FC910190F081E02DC6012C
:100220000995892B79F7C501DF91CF911F910F9126
:10023000FF90EF90DF90CF90BF90AF900895FC01BA
:10024000538D448D252F30E0842F90E0821B930B3B
:10025000541710F0CF96089501970895FC01918DE1
:10026000828D981761F0A28DAE0FBF2FB11D5D96E4
:100270008C91928D9F5F9F73928F90E008958FEF86
:100280009FEF0895FC01918D828D981731F0828D3A
:10029000E80FF11D858D90E008958FEF9FEF089591
:1002A000FC01918D228D892F90E0805C9F4F821BF5
:1002B00091098F739927089587E791E00E94500173
:1002C00021E0892B09F420E0822F089580E090E05E
:1002D000892B29F00E945C0181110C940000089583
:1002E000FC01A48DA80FB92FB11DA35ABF4F2C91AB
:1002F000848D90E001968F739927848FA689B789A2
:100300002C93A089B1898C91837080648C93938D98
:10031000848D981306C00288F389E02D80818F7D3B
:1003200080830895EF92FF920F931F93CF93DF93F3
:10033000EC0181E0888F9B8D8C8D98131AC0E88921
:10034000F989808185FF15C09FB7F894EE89FF89F0
:100350006083E889F98980818370806480839FBF8E
:1003600081E090E0DF91CF911F910F91FF90EF908E
:100370000895F62E0B8D10E00F5F1F4F0F7311279E
:10038000E02E8C8D8E110CC00FB607FCFACFE889D9
:10039000F989808185FFF5CFCE010E947001F1CFF0
:1003A000EB8DEC0FFD2FF11DE35AFF4FF0829FB74D
:1003B000F8940B8FEA89FB8980818062CFCFCF933D
:1003C000DF93EC01888D8823B9F0AA89BB89E8897D
:1003D000F9898C9185FD03C0808186FD0DC00FB623
:1003E00007FCF7CF8C9185FFF2CF808185FFEDCFA1
:1003F000CE010E947001E9CFDF91CF910895CF9394
:10040000DF93FC0101900020E9F73197AF01481B11
:10041000590BBC0187E791E00E94F200EC0142E039
:1004200050E062E171E087E791E00E94F2008C0FFA
:100430009D1FDF91CF9108951F920F920FB60F92DB
:1004400011242F933F938F939F93AF93BF938091EA
:10045000730190917401A0917501B0917601309172
:10046000720123E0230F2D3758F50196A11DB11D10
:10047000209372018093730190937401A09375018E
:10048000B093760180916E0190916F01A0917001FF
:10049000B09171010196A11DB11D80936E019093E1
:1004A0006F01A0937001B0937101BF91AF919F91C3
:1004B0008F913F912F910F900FBE0F901F90189525
:1004C00026E8230F0296A11DB11DD2CF1F920F92D5
:1004D0000FB60F9211242F933F934F935F936F9317
:1004E0007F938F939F93AF93BF93EF93FF9387E790
:1004F00091E00E947001FF91EF91BF91AF919F91A8
:100500008F917F916F915F914F913F912F910F90BC
:100510000FBE0F901F9018951F920F920FB60F925B
:1005200011242F938F939F93EF93FF93E091870173
:10053000F09188018081E0918D01F0918E0182FD22
:100540001BC09081809190018F5F8F7320919101EA
:10055000821741F0E0919001F0E0E958FE4F958F4D
:1005600080939001FF91EF919F918F912F910F9028
:100570000FBE0F901F9018958081F4CF789484B5AA
:10058000826084BD84B5816084BD85B5826085BD8F
:1005900085B5816085BD80916E00816080936E001D
:1005A000109281008091810082608093810080910F
:1005B00081008160809381008091800081608093C0
:1005C00080008091B10084608093B1008091B00080
:1005D00081608093B00080917A00846080937A007B
:1005E00080917A00826080937A0080917A008160A5
:1005F00080937A0080917A00806880937A001092CC
:10060000C10086E00E94870086E00E94870060E0CB
:1006100086E00E94A6008DE00E94870060E08DE0E9
:100620000E94A600E0918701F091880182E080831A
:10063000E0918301F09184011082E0918501F091B5
:1006400086018FEC808310928F01E0918B01F091F5
:100650008C0186E08083E0918901F0918A0180819C
:1006600080618083E0918901F0918A0180818860B6
:100670008083E0918901F0918A0180818068808384
:10068000E0918901F0918A0180818F7D808385E1ED
:1006900091E00E94FF0188E291E00E94FF01C0E02A
:1006A000D0E087E791E00E945001181619064CF43B
:1006B00087E791E00E942E018F3481F05CF486344C
:1006C000E9F0209771F30E945C01882351F30E94A6
:1006D0000000E7CF863691F08F3699F786E00E94CA
:1006E000870061E086E00E94A60061E08DE00E9444
:1006F000A6008AE591E00E94FF01E3CF86E00E9418
:10070000870060E086E00E94A60060E08DE00E9425
:10071000A60083E691E0EFCFE7E7F1E013821282D3
:1007200088EE93E0A0E0B0E084839583A683B7834E
:1007300084E091E09183808385EC90E095878487C5
:1007400084EC90E09787868780EC90E0918B808B9B
:1007500081EC90E0938B828B82EC90E0958B848B84
:1007600086EC90E0978B868B118E128E138E148EF2
:100770000895EE0FFF1F0590F491E02D0994F89471
:02078000FFCFA9
:10078200000000009201F2001F01DF0150012E0162
:1007920042010D0A002D2D2D204C617365722054EB
:1007A200657374202D2D2D0053656E6420276F27ED
:1007B20020746F207475726E206C61736572204FA5
:1007C2004E2C2027662720746F207475726E206C61
:1007D20061736572204F46462E004C61736572202C
:0E07E2004F4E004C61736572204F464600007A
:00000001FF
