:100000000C945D000C9485000C9485000C94850084
:100010000C9485000C9485000C9485000C9485004C
:100020000C9485000C9485000C9485000C940403BA
:100030000C9485000C9485000C9485000C9485002C
:100040000C9462020C9485000C94D2020C94AC02C5
:100050000C9485000C9485000C9485000C9485000C
:100060000C9485000C9485000000000024002700FB
:100070002A0000000000250028002B0004040404CE
:100080000404040402020202020203030303030342
:10009000010204081020408001020408102001021F
:1000A00004081020000000080002010000030407FB
:1000B0000000000000000000C00311241FBECFEFAD
:1000C000D8E0DEBFCDBF11E0A0E0B1E0EEE7FBE09D
:1000D00002C005900D92A638B107D9F722E0A6E834
:1000E000B1E001C01D92A535B207E1F710E0CDE502
:1000F000D0E004C02197FE010E94B705CC35D1079E
:10010000C9F70E941D040C94BD050C9400008F9249
:100110009F92AF92BF92FF920F931F93CF93DF9363
:10012000F09052022BE02F1508F44CC0209154029D
:1001300008E512E0021B110927FD1395000F111F9E
:10014000000F111F20915302C8E8D0E0C21BD10953
:1001500027FDD395CC0FDD1FCC0FDD1F4E010D2EDB
:10016000000CAA08BB089801012E000C440B550B8B
:10017000281939094A095B09DC010E94720524EB40
:1001800030E040E050E00E944805820E931EA41E1D
:10019000B51E8C169D062CF0E801801691060CF415
:1001A000E4012297CC0FDD1F2FB7F8948F2D90E03C
:1001B000FC01EE0FFF1FE80FF91FE35DFD4FD28337
:1001C000C1832FBFDF91CF911F910F91FF90BF90FF
:1001D000AF909F908F90089590E0FC01EC55FF4FF9
:1001E0002491FC01E057FF4F3491FC01E458FF4F8C
:1001F000E491EE23C9F0222339F0233001F1A8F471
:10020000213019F1223029F1F0E0EE0FFF1FEE58F6
:10021000FF4FA591B4918FB7F894EC91611126C06E
:1002200030953E233C938FBF08952730A9F02830A6
:10023000C9F0243049F7809180008F7D03C0809100
:1002400080008F7780938000DFCF84B58F7784BD67
:10025000DBCF84B58F7DFBCF8091B0008F7780930B
:10026000B000D2CF8091B0008F7DF9CF3E2BDACF96
:10027000AF92BF92CF92DF92EF92FF920F931F93B4
:10028000CF93DF936C017B018B01040F151FEB01F2
:100290005E01AE18BF08C017D10759F06991D601A9
:1002A000ED91FC910190F081E02DC6010995892B1B
:1002B00079F7C501DF91CF911F910F91FF90EF90DA
:1002C000DF90CF90BF90AF900895FC01538D448D87
:1002D000252F30E0842F90E0821B930B541710F0F1
:1002E000CF96089501970895FC01918D828D9817FE
:1002F00061F0A28DAE0FBF2FB11D5D968C91928DD6
:100300009F5F9F73928F90E008958FEF9FEF089506
:10031000FC01918D828D981731F0828DE80FF11DCF
:10032000858D90E008958FEF9FEF0895FC01918DEA
:10033000228D892F90E0805C9F4F821B91098F73E3
:100340009927089580E991E00E94960121E0892B88
:1003500009F420E0822F089580E090E0892B29F0B5
:100360000E94A20181110C9400000895FC01A48D4B
:10037000A80FB92FB11DA35ABF4F2C91848D90E0C7
:1003800001968F739927848FA689B7892C93A089AA
:10039000B1898C91837080648C93938D848D981334
:1003A00006C00288F389E02D80818F7D80830895C7
:1003B000EF92FF920F931F93CF93DF93EC0181E0B5
:1003C000888F9B8D8C8D98131AC0E889F98980815C
:1003D00085FF15C09FB7F894EE89FF896083E8898F
:1003E000F98980818370806480839FBF81E090E081
:1003F000DF91CF911F910F91FF90EF900895F62E0E
:100400000B8D10E00F5F1F4F0F731127E02E8C8DA7
:100410008E110CC00FB607FCFACFE889F9898081EC
:1004200085FFF5CFCE010E94B601F1CFEB8DEC0F29
:10043000FD2FF11DE35AFF4FF0829FB7F8940B8F09
:10044000EA89FB8980818062CFCFCF93DF93EC0173
:10045000888D8823B9F0AA89BB89E889F9898C91AC
:1004600085FD03C0808186FD0DC00FB607FCF7CF68
:100470008C9185FFF2CF808185FFEDCFCE010E9468
:10048000B601E9CFDF91CF910895CF93DF93FC01BF
:1004900001900020E9F73197AF01481B590BBC01CF
:1004A00080E991E00E943801EC0142E050E062E115
:1004B00071E080E991E00E9438018C0F9D1FDF916F
:1004C000CF9108951F920F920FB60F9211242F9380
:1004D0003F938F939F93AF93BF9380918C019091A3
:1004E0008D01A0918E01B0918F0130918B0123E09D
:1004F000230F2D3758F50196A11DB11D20938B01B7
:1005000080938C0190938D01A0938E01B0938F0105
:100510008091870190918801A0918901B0918A0111
:100520000196A11DB11D8093870190938801A0932E
:100530008901B0938A01BF91AF919F918F913F91B3
:100540002F910F900FBE0F901F90189526E8230F44
:100550000296A11DB11DD2CF1F920F920FB60F921E
:1005600011242F933F934F935F936F937F938F93B8
:100570009F93AF93BF93EF93FF9380E991E00E9425
:10058000B601FF91EF91BF91AF919F918F917F91B4
:100590006F915F914F913F912F910F900FBE0F90F0
:1005A0001F9018951F920F920FB60F9211242F9340
:1005B0008F939F93EF93FF93E091A001F091A1019E
:1005C0008081E091A601F091A70182FD1BC090817E
:1005D0008091A9018F5F8F732091AA01821741F04A
:1005E000E091A901F0E0E057FE4F958F8093A901BB
:1005F000FF91EF919F918F912F910F900FBE0F90D0
:100600001F9018958081F4CF1F920F920FB60F9212
:1006100011242F933F934F935F936F937F938F9307
:100620009F93AF93BF93CF93DF93EF93FF9380910B
:100630008601C0915102D0E087FF24C0109285004E
:1006400010928400809186018F5F80938601809153
:100650008601082E000C990B8C179D0724F48091BD
:1006600086018C30C4F180918400909185000496BD
:1006700080349C4908F47AC0809184009091850070
:10068000049676C080918601082E000C990B8C1779
:100690009D07C4F6E09186018E2FEE0F990BFC01A9
:1006A000EE0FFF1FE80FF91FE35DFD4F808186FF0E
:1006B000C9CFE09186018E2FEE0F990BFC01EE0F52
:1006C000FF1FE80FF91FE35DFD4F808160E08F732E
:1006D0000E94EC00B7CF2091840030918500E0911A
:1006E00086018E2FEE0F990BFC01EE0FFF1FE80F16
:1006F000F91FE35DFD4F81819281820F931F9093DB
:10070000890080938800E09186018E2FEE0F990B6F
:10071000FC01EE0FFF1FE80FF91FE35DFD4F808125
:1007200086FF11C0E09186018E2FEE0F990BFC0120
:10073000EE0FFF1FE80FF91FE35DFD4F808161E0C1
:100740008F730E94EC00FF91EF91DF91CF91BF91E9
:10075000AF919F918F917F916F915F914F913F9159
:100760002F910F900FBE0F901F90189580E49CE979
:1007700090938900809388008FEF80938601E3CF68
:10078000109293011092920188EE93E0A0E0B0E005
:100790008093940190939501A0939601B093970153
:1007A00084E091E0909391018093900185EC90E03A
:1007B00090939D0180939C0184EC90E090939F0125
:1007C00080939E0180EC90E09093A1018093A00122
:1007D00081EC90E09093A3018093A20182EC90E0E1
:1007E0009093A5018093A40186EC90E09093A701DB
:1007F0008093A6011092A9011092AA011092AB0158
:100800001092AC01809151028C3098F491E0980FD5
:10081000909351028093520290E0FC01EE0FFF1F73
:10082000E80FF91FE35DFD4F88EB9BE09283818326
:1008300008958FEF809352020895789484B5826072
:1008400084BD84B5816084BD85B5826085BD85B574
:10085000816085BD80916E00816080936E001092F2
:10086000810080918100826080938100809181006D
:1008700081608093810080918000816080938000FE
:100880008091B10084608093B1008091B00081605C
:100890008093B00080917A00846080937A00809188
:1008A0007A00826080937A0080917A0081608093E0
:1008B0007A0080917A00806880937A001092C1005B
:1008C000809152028C3008F068C0EBE9F0E024918E
:1008D000E7E8F0E08491882399F090E0880F991F71
:1008E000FC01E859FF4FA591B491FC01EE58FF4F70
:1008F000859194918FB7F894EC91E22BEC938FBF94
:1009000080915202282F30E0F901EE0FFF1FE20F15
:10091000F31FE35DFD4F9081907C9B60908310926C
:100920005302109254022CE0622F0E94AB05829F6A
:10093000B001112430E020E0AB01420F531FFA0157
:10094000EE0FFF1FE40FF51FE35DFD4F908196FD55
:1009500016C02F5F3F4F2C30310571F781110FC04A
:100960001092800082E080938100109285001092A6
:100970008400B19A80916F00826080936F00E09153
:1009800052028E2F90E0FC01EE0FFF1FE80FF91FBF
:10099000E35DFD4F8081806480838AE590E00E9462
:1009A0008700E091A001F091A10182E08083E091B5
:1009B0009C01F0919D011082E0919E01F0919F01B8
:1009C0008FEC80831092A801E091A401F091A50121
:1009D00086E08083E091A201F091A3018081806193
:1009E0008083E091A201F091A301808188608083DF
:1009F000E091A201F091A301808180688083E09161
:100A0000A201F091A30180818F7D808385E191E037
:100A10000E94450280E391E00E944502C0E0D0E0E0
:100A200080E991E00E949601181619065CF480E9AD
:100A300091E00E9474018535D9F06CF4833489F01B
:100A40008434F9F0209761F30E94A201882341F3D6
:100A50000E940000E5CF8436A1F0853749F0833647
:100A600089F78AE590E00E9487008CE791E006C054
:100A700088E790E00E94870086E691E00E944502A8
:100A8000E1CF8CE390E00E94870080E791E0F6CF11
:100A9000052E97FB1EF400940E945F0557FD07D0BA
:100AA0000E947A0507FC03D04EF40C945F05509524
:100AB0004095309521953F4F4F4F5F4F089590954A
:100AC0008095709561957F4F8F4F9F4F08950E943D
:100AD0009C05A59F900DB49F900DA49F800D911D26
:100AE00011240895B7FF0C9467050E946705821BC7
:100AF000930B0895A1E21A2EAA1BBB1BFD010DC08A
:100B0000AA1FBB1FEE1FFF1FA217B307E407F507BD
:100B100020F0A21BB30BE40BF50B661F771F881F99
:100B2000991F1A9469F760957095809590959B012F
:100B3000AC01BD01CF010895A29FB001B39FC001D8
:100B4000A39F700D811D1124911DB29F700D811DF9
:100B50001124911D0895991B79E004C0991F9617DF
:100B600008F0961B881F7A95C9F780950895EE0FB7
:0E0B7000FF1F0590F491E02D0994F894FFCF3B
:100B7E0000000000D80138016501250296017401BC
:100B8E0088010D0A002D2D2D2055702F446F776E84
:100B9E0020536572766F2054657374202D2D2D00B1
:100BAE0053656E642027752720746F206D6F7665F0
:100BBE002055502C2027642720746F206D6F76658A
:100BCE0020444F574E2C2027632720746F20434517
:100BDE004E5445522E004D6F76696E67205550006B
:100BEE004D6F76696E6720444F574E0043656E74A5
:060BFE0065726564000051
:00000001FF
