:100000000C9462000C948A000C948A000C948A0070
:100010000C948A000C948A000C948A000C948A0038
:100020000C948A000C948A000C948A000C94390376
:100030000C948A000C948A000C948A000C948A0018
:100040000C9497020C948A000C9407030C94E10220
:100050000C948A000C948A000C948A000C948A00F8
:100060000C948A000C948A000000000024002700F1
:100070002A000000000023002600290000000000E4
:10008000250028002B0004040404040404040202D4
:100090000202020203030303030301020408102007
:1000A0004080010204081020010204081020000012
:1000B0000008000201000003040700000000000027
:1000C0000000F50311241FBECFEFD8E0DEBFCDBF87
:1000D00011E0A0E0B1E0E0E7FCE002C005900D9285
:1000E000A237B107D9F722E0A2E7B1E001C01D9223
:1000F000A134B207E1F710E0C2E6D0E004C02197D6
:10010000FE010E943006C136D107C9F70E94520491
:100110000C9436060C9400008F929F92AF92BF927F
:10012000FF920F931F93CF93DF93F0903E022BE04B
:100130002F1508F44CC02091400208E512E0021B84
:10014000110927FD1395000F111F000F111F20919A
:100150003F02C8E8D0E0C21BD10927FDD395CC0FE0
:10016000DD1FCC0FDD1F4E010D2E000CAA08BB08B1
:100170009801012E000C440B550B281939094A0926
:100180005B09DC010E94EB0524EB30E040E050E02D
:100190000E94C105820E931EA41EB51E8C169D06DC
:1001A0002CF0E801801691060CF4E4012297CC0FA4
:1001B000DD1F2FB7F8948F2D90E0FC01EE0FFF1F8D
:1001C000E80FF91FE75EFD4FD283C1832FBFDF9198
:1001D000CF911F910F91FF90BF90AF909F908F9004
:1001E0000895833081F028F4813099F08230A9F0AD
:1001F00008958730A9F08830C9F08430B1F4809137
:1002000080008F7D03C0809180008F778093800075
:10021000089584B58F7784BD089584B58F7DFBCF15
:100220008091B0008F778093B00008958091B000E6
:100230008F7DF9CF1F93CF93DF93282F30E0F90103
:10024000E255FF4F8491F901E656FF4FD491F90131
:10025000EA57FF4FC491CC23A9F0162F81110E94B9
:10026000F100EC2FF0E0EE0FFF1FE458FF4FA591D7
:10027000B4918FB7F894EC91111108C0D095DE239A
:10028000DC938FBFDF91CF911F910895DE2BF8CFC4
:100290003FB7F8948091780190917901A0917A010B
:1002A000B0917B0126B5A89B05C02F3F19F00196A0
:1002B000A11DB11D3FBFBA2FA92F982F8827BC01C0
:1002C000CD01620F711D811D911D42E0660F771FE8
:1002D000881F991F4A95D1F70895AF92BF92CF9288
:1002E000DF92EF92FF920F931F93CF93DF936C01F6
:1002F0007B018B01040F151FEB015E01AE18BF08D7
:10030000C017D10759F06991D601ED91FC91019088
:10031000F081E02DC6010995892B79F7C501DF91A0
:10032000CF911F910F91FF90EF90DF90CF90BF90F2
:10033000AF900895FC01538D448D252F30E0842F1C
:1003400090E0821B930B541710F0CF9608950197FD
:100350000895FC01918D828D981761F0A28DAE0FEA
:10036000BF2FB11D5D968C91928D9F5F9F73928F71
:1003700090E008958FEF9FEF0895FC01918D828D9D
:10038000981731F0828DE80FF11D858D90E008956A
:100390008FEF9FEF0895FC01918D228D892F90E0C2
:1003A000805C9F4F821B91098F73992708958CE77A
:1003B00091E00E94CB0121E0892B09F420E0822FFB
:1003C000089580E090E0892B29F00E94D7018111E7
:1003D0000C9400000895FC01A48DA80FB92FB11D45
:1003E000A35ABF4F2C91848D90E001968F7399276B
:1003F000848FA689B7892C93A089B1898C91837049
:1004000080648C93938D848D981306C00288F38941
:10041000E02D80818F7D80830895EF92FF920F936E
:100420001F93CF93DF93EC0181E0888F9B8D8C8DA0
:1004300098131AC0E889F989808185FF15C09FB794
:10044000F894EE89FF896083E889F9898081837057
:10045000806480839FBF81E090E0DF91CF911F9106
:100460000F91FF90EF900895F62E0B8D10E00F5F27
:100470001F4F0F731127E02E8C8D8E110CC00FB6FD
:1004800007FCFACFE889F989808185FFF5CFCE0195
:100490000E94EB01F1CFEB8DEC0FFD2FF11DE35A24
:1004A000FF4FF0829FB7F8940B8FEA89FB89808118
:1004B0008062CFCFCF93DF93EC01888D8823B9F092
:1004C000AA89BB89E889F9898C9185FD03C080815F
:1004D00086FD0DC00FB607FCF7CF8C9185FFF2CFDC
:1004E000808185FFEDCFCE010E94EB01E9CFDF9146
:1004F000CF910895CF93DF93FC0101900020E9F79D
:100500003197AF01481B590BBC018CE791E00E9469
:100510006D01EC0142E050E062E171E08CE791E0B6
:100520000E946D018C0F9D1FDF91CF9108951F9246
:100530000F920FB60F9211242F933F938F939F9397
:10054000AF93BF938091740190917501A091760152
:10055000B09177013091730123E0230F2D3758F5C7
:100560000196A11DB11D2093730180937401909396
:100570007501A0937601B0937701809178019091F5
:100580007901A0917A01B0917B010196A11DB11D65
:100590008093780190937901A0937A01B0937B01C5
:1005A000BF91AF919F918F913F912F910F900FBE6F
:1005B0000F901F90189526E8230F0296A11DB11DDC
:1005C000D2CF1F920F920FB60F9211242F933F9309
:1005D0004F935F936F937F938F939F93AF93BF934B
:1005E000EF93FF938CE791E00E94EB01FF91EF9175
:1005F000BF91AF919F918F917F916F915F914F913B
:100600003F912F910F900FBE0F901F9018951F9242
:100610000F920FB60F9211242F938F939F93EF9306
:10062000FF93E0918C01F0918D018081E091920126
:10063000F091930182FD1BC09081809195018F5FA5
:100640008F7320919601821741F0E0919501F0E0BF
:10065000E458FE4F958F80939501FF91EF919F9104
:100660008F912F910F900FBE0F901F901895808142
:10067000F4CF1F920F920FB60F9211242F933F9336
:100680004F935F936F937F938F939F93AF93BF939A
:10069000CF93DF93EF93FF9380917201C0913D025E
:1006A000D0E087FF24C010928500109284008091D2
:1006B00072018F5F8093720180917201082E000C8D
:1006C000990B8C179D0724F4809172018C30C4F132
:1006D0008091840090918500049680349C4908F4B0
:1006E0007AC08091840090918500049676C08091B4
:1006F0007201082E000C990B8C179D07C4F6E0912F
:1007000072018E2FEE0F990BFC01EE0FFF1FE80F09
:10071000F91FE75EFD4F808186FFC9CFE09172012E
:100720008E2FEE0F990BFC01EE0FFF1FE80FF91F44
:10073000E75EFD4F808160E08F730E941A01B7CFA2
:100740002091840030918500E09172018E2FEE0F90
:10075000990BFC01EE0FFF1FE80FF91FE75EFD4F3D
:1007600081819281820F931F9093890080938800EA
:10077000E09172018E2FEE0F990BFC01EE0FFF1F1F
:10078000E80FF91FE75EFD4F808186FF11C0E09101
:1007900072018E2FEE0F990BFC01EE0FFF1FE80F79
:1007A000F91FE75EFD4F808161E08F730E941A019F
:1007B000FF91EF91DF91CF91BF91AF919F918F9179
:1007C0007F916F915F914F913F912F910F900FBE4D
:1007D0000F901F90189580E49CE990938900809376
:1007E00088008FEF80937201E3CF10927F01109207
:1007F0007E0188EE93E0A0E0B0E0809380019093CA
:100800008101A0938201B093830184E091E09093F1
:100810007D0180937C0185EC90E090938901809329
:10082000880184EC90E090938B0180938A0180ECA6
:1008300090E090938D0180938C0181EC90E09093F7
:100840008F0180938E0182EC90E0909391018093D0
:10085000900186EC90E09093930180939201109226
:100860009501109296011092970110929801809133
:100870003D028C3098F491E0980F90933D02809364
:100880003E0290E0FC01EE0FFF1FE80FF91FE75E4C
:10089000FD4F88EB9BE09283818308958FEF8093D7
:1008A0003E020895789484B5826084BD84B58160E9
:1008B00084BD85B5826085BD85B5816085BD80912B
:1008C0006E00816080936E001092810080918100A3
:1008D000826080938100809181008160809381009B
:1008E000809180008160809380008091B10084605D
:1008F0008093B1008091B00081608093B0008091BE
:100900007A00846080937A0080917A00826080937C
:100910007A0080917A00816080937A0080917A00D9
:10092000806880937A001092C100C3EAD0E0FE0193
:1009300024910FE810E0F80184918823C9F090E039
:10094000880F991FFC01E859FF4FA591B491FC0154
:10095000E458FF4F459154919FB7F8943C91822FF2
:10096000809583238C93FA018081282B20839FBF5D
:1009700080913E028C3008F068C0E4EAF0E02491F7
:10098000E0E9F0E08491882399F090E0880F991FC6
:10099000FC01E859FF4FA591B491FC01E458FF4FC9
:1009A000859194918FB7F894EC91E22BEC938FBFE3
:1009B00080913E02282F30E0F901EE0FFF1FE20F79
:1009C000F31FE75EFD4F9081907C9A6090831092B8
:1009D0003F02109240022CE0622F0E942406829F68
:1009E000B001112430E020E0AB01420F531FFA01A7
:1009F000EE0FFF1FE40FF51FE75EFD4F908196FDA0
:100A000016C02F5F3F4F2C30310571F781110FC099
:100A10001092800082E080938100109285001092F5
:100A20008400B19A80916F00826080936F00E091A2
:100A30003E028E2F90E0FC01EE0FFF1FE80FF91F22
:100A4000E75EFD4F8081806480838CE390E00E94AC
:100A50008C00E0918C01F0918D0182E08083E09127
:100A60008801F09189011082E0918A01F0918B0157
:100A70008FEC808310929401E0919001F0919101AC
:100A800086E08083E0918E01F0918F01808180610A
:100A90008083E0918E01F0918F0180818860808356
:100AA000E0918E01F0918F01808180688083E091D8
:100AB0008E01F0918F0180818F7D808385E191E0AF
:100AC0000E947A0227EB822E20E0922E30E0A32EA5
:100AD00030E0B32EF4018491FE01E490F801F4902B
:100AE000FF2009F447C081110E94F100EF2DF0E0D2
:100AF000EE0FFF1FEE58FF4FA591B4918C91E822A5
:100B0000C9F18CE390E00E948C0082E491E00E94A5
:100B10007A020E9448012B013C0184EFC82EDD249B
:100B2000D394E12CF12C0E944801641975098609BF
:100B30009709683E734081059105A8F3F1E0CF1A4B
:100B4000D108E108F10828EE420E23E0521E611C94
:100B5000711CC114D104E104F10429F7A114B104FA
:100B600009F4B8CF0E94D701882309F4B3CF0E94BB
:100B70000000B0CF88E790E00E948C008BE591E008
:100B8000C6CF052E97FB1EF400940E94D80557FD92
:100B900007D00E94F30507FC03D04EF40C94D8054F
:100BA00050954095309521953F4F4F4F5F4F089599
:100BB00090958095709561957F4F8F4F9F4F0895C9
:100BC0000E941506A59F900DB49F900DA49F800DC7
:100BD000911D11240895B7FF0C94E0050E94E005D3
:100BE000821B930B0895A1E21A2EAA1BBB1BFD01C9
:100BF0000DC0AA1FBB1FEE1FFF1FA217B307E407FC
:100C0000F50720F0A21BB30BE40BF50B661F771F53
:100C1000881F991F1A9469F7609570958095909533
:100C20009B01AC01BD01CF010895A29FB001B39F0C
:100C3000C001A39F700D811D1124911DB29F700DE5
:100C4000811D1124911D0895991B79E004C0991FFD
:100C5000961708F0961B881F7A95C9F78095089516
:100C6000EE0FFF1F0590F491E02D0994F894FFCF4B
:100C7000000000000D026D019A015A02CB01A9018A
:100C8000BD010D0A002D2D2D205069202D3E204E36
:100C9000616E6F202D3E20536572766F202855704F
:100CA0002F446F776E2920627269646765202D2D4D
:100CB0002D0048494748202869646C6529202D206B
:100CC000536572766F20444F574E004C4F57206645
:100CD000726F6D205069202D20536572766F2055FC
:020CE0005000C2
:00000001FF
