:100000000C9462000C948A000C948A000C948A0070
:100010000C948A000C948A000C948A000C948A0038
:100020000C948A000C948A000C948A000C948A0028
:100030000C948A000C948A000C948A000C948A0018
:100040000C94CB010C948A000C943B020C94150286
:100050000C948A000C948A000C948A000C948A00F8
:100060000C948A000C948A000000000025002800EF
:100070002B0000000000240027002A0000000000E0
:1000800023002600290004040404040404040202DA
:100090000202020203030303030301020408102007
:1000A0004080010204081020010204081020000012
:1000B0000008000201000003040700000000000027
:1000C0000000900311241FBECFEFD8E0DEBFCDBFEC
:1000D00011E0A0E0B1E0EAE8F7E002C005900D927F
:1000E000AE34B107D9F721E0AEE4B1E001C01D9212
:1000F000A43FB207E1F710E0C2E6D0E004C02197C8
:10010000FE010E94BD03C136D107C9F70E946D02EE
:100110000C94C3030C9400003FB7F89480915301F2
:1001200090915401A0915501B091560126B5A89B1C
:1001300005C02F3F19F00196A11DB11D3FBFBA2F79
:10014000A92F982F8827BC01CD01620F711D811D39
:10015000911D42E0660F771F881F991F4A95D1F7BE
:100160000895AF92BF92CF92DF92EF92FF920F93DA
:100170001F93CF93DF936C017B018B01040F151F3D
:10018000EB015E01AE18BF08C017D10759F06991A5
:10019000D601ED91FC910190F081E02DC601099509
:1001A000892B79F7C501DF91CF911F910F91FF90B6
:1001B000EF90DF90CF90BF90AF900895FC01538DEA
:1001C000448D252F30E0842F90E0821B930B541731
:1001D00010F0CF96089501970895FC01918D828DBE
:1001E000981761F0A28DAE0FBF2FB11D5D968C9157
:1001F000928D9F5F9F73928F90E008958FEF9FEF96
:100200000895FC01918D828D981731F0828DE80F51
:10021000F11D858D90E008958FEF9FEF0895FC010B
:10022000918D228D892F90E0805C9F4F821B9109D8
:100230008F739927089587E591E00E940F0121E0CF
:10024000892B09F420E0822F089580E090E0892B2B
:1002500029F00E941B0181110C9400000895FC01FB
:10026000A48DA80FB92FB11DA35ABF4F2C91848D17
:1002700090E001968F739927848FA689B7892C9374
:10028000A089B1898C91837080648C93938D848DC7
:10029000981306C00288F389E02D80818F7D8083CA
:1002A0000895EF92FF920F931F93CF93DF93EC018A
:1002B00081E0888F9B8D8C8D98131AC0E889F9890D
:1002C000808185FF15C09FB7F894EE89FF89608310
:1002D000E889F98980818370806480839FBF81E091
:1002E00090E0DF91CF911F910F91FF90EF900895D3
:1002F000F62E0B8D10E00F5F1F4F0F731127E02EAE
:100300008C8D8E110CC00FB607FCFACFE889F989E5
:10031000808185FFF5CFCE010E942F01F1CFEB8DBB
:10032000EC0FFD2FF11DE35AFF4FF0829FB7F894B9
:100330000B8FEA89FB8980818062CFCFCF93DF93D7
:10034000EC01888D8823B9F0AA89BB89E889F989ED
:100350008C9185FD03C0808186FD0DC00FB607FC22
:10036000F7CF8C9185FFF2CF808185FFEDCFCE0155
:100370000E942F01E9CFDF91CF910895FC010190F8
:100380000020E9F73197AF01481B590BBC0187E505
:1003900091E00C94B1001F920F920FB60F921124AE
:1003A0002F933F938F939F93AF93BF9380914F0170
:1003B00090915001A0915101B091520130914E01A4
:1003C00023E0230F2D3758F50196A11DB11D209371
:1003D0004E0180934F0190935001A0935101B0932F
:1003E00052018091530190915401A0915501B09117
:1003F00056010196A11DB11D8093530190935401A4
:10040000A0935501B0935601BF91AF919F918F91E9
:100410003F912F910F900FBE0F901F90189526E8D7
:10042000230F0296A11DB11DD2CF1F920F920FB6BE
:100430000F9211242F933F934F935F936F937F936A
:100440008F939F93AF93BF93EF93FF9387E591E0D3
:100450000E942F01FF91EF91BF91AF919F918F91DA
:100460007F916F915F914F913F912F910F900FBEB0
:100470000F901F9018951F920F920FB60F92112494
:100480002F938F939F93EF93FF93E0916701F091E8
:1004900068018081E0916D01F0916E0182FD1BC0C9
:1004A0009081809170018F5F8F732091710182170D
:1004B00041F0E0917001F0E0E95AFE4F958F809392
:1004C0007001FF91EF919F918F912F910F900FBE2F
:1004D0000F901F9018958081F4CF789484B5826036
:1004E00084BD84B5816084BD85B5826085BD85B5D8
:1004F000816085BD80916E00816080936E00109256
:1005000081008091810082608093810080918100D0
:100510008160809381008091800081608093800061
:100520008091B10084608093B1008091B0008160BF
:100530008093B00080917A00846080937A008091EB
:100540007A00826080937A0080917A008160809343
:100550007A0080917A00806880937A001092C100BE
:10056000CCE9D0E0FE01249108E810E0F801849184
:100570008823C9F090E0880F991FFC01EE58FF4FC7
:10058000A591B491FC01E859FF4F459154913FB7B3
:10059000F8949C91822F809598239C93FA019081E6
:1005A000892380833FBFE0916701F091680182E079
:1005B0008083E0916301F09164011082E091650114
:1005C000F09166018FEC808310926F01E0916B01D6
:1005D000F0916C0186E08083E0916901F0916A01FD
:1005E000808180618083E0916901F0916A0180815E
:1005F00088608083E0916901F0916A018081806860
:100600008083E0916901F0916A0180818F7D808310
:1006100030EB832E30E0932E40E0A42E40E0B42E49
:10062000F4018491FE019491F8012491222309F4AC
:1006300074C0882359F0833009F458C008F04BC0C7
:10064000813009F459C0823009F45AC0E22FF0E039
:10065000EE0FFF1FE458FF4FA591B4918C919823A2
:1006600009F45BC082E191E00E94BE018BE391E05E
:100670000E94BE010E948C002B013C0184EFC82E19
:10068000DD24D394E12CF12C0E948C0064197509AF
:1006900086099709683E734081059105A8F3F1E04A
:1006A000CF1AD108E108F10828EE420E23E0521ECD
:1006B000611C711CC114D104E104F10429F7A114D7
:1006C000B10409F4ADCF0E941B01882309F4A8CF1F
:1006D0000E940000A5CF8730B1F08830D1F084307F
:1006E00009F0B4CF809180008F7D03C0809180009D
:1006F0008F7780938000AACF84B58F7784BDA6CFF3
:1007000084B58F7DFBCF8091B0008F778093B00050
:100710009DCF8091B0008F7DF9CF8EE391E0A4CF83
:10072000E7E5F1E01382128288EE93E0A0E0B0E00A
:1007300084839583A683B78384E091E0918380834B
:1007400085EC90E09587848784EC90E09787868796
:1007500080EC90E0918B808B81EC90E0938B828B8E
:1007600082EC90E0958B848B86EC90E0978B868B67
:10077000118E128E138E148E0895EE0FFF1F0590AA
:0A078000F491E02D0994F894FFCFE6
:10078A00000000005101B100DE009E010F01ED00E2
:10079A00010148494748202D205369676E616C2042
:1007AA0072656365697665642066726F6D20526151
:1007BA0073706265727279205069000D0A004C4F9D
:0E07CA0057202D204E6F207369676E616C0002
:00000001FF
