:100000000C945D000C9485000C9485000C94850084
:100010000C9485000C9485000C9485000C9485004C
:100020000C9485000C9485000C9485000C9485003C
:100030000C9485000C9485000C9485000C9485002C
:100040000C9415020C9485000C9485020C945F02AC
:100050000C9485000C9485000C9485000C9485000C
:100060000C9485000C9485000000000024002700FB
:100070002A0000000000250028002B0004040404CE
:100080000404040402020202020203030303030342
:10009000010204081020408001020408102001021F
:1000A00004081020000000080002010000030407FB
:1000B00000000000000000006F0311241FBECFEFFE
:1000C000D8E0DEBFCDBF11E0A0E0B1E0E8E4F7E0AA
:1000D00002C005900D92AC37B107D9F722E0ACE72A
:1000E000B1E001C01D92A232B207E1F710E0CDE508
:1000F000D0E004C02197FE010E949C03CC35D107BB
:10010000C9F70E94B7020C94A2030C940000EAEA1B
:10011000F0E02491E6E9F0E09491E2E8F0E0E49187
:10012000EE23C9F0222339F0233001F1A8F4213065
:1001300019F1223029F1F0E0EE0FFF1FEE58FF4FCA
:10014000A591B4912FB7F894EC91811126C09095A8
:100150009E239C932FBF08952730A9F02830C9F023
:10016000243049F7209180002F7D03C0209180002A
:100170002F7720938000DFCF24B52F7724BDDBCFEE
:1001800024B52F7DFBCF2091B0002F772093B000B6
:10019000D2CF2091B0002F7DF9CF9E2BDACFE6E9A8
:1001A000F0E02491E2E8F0E08491882399F090E077
:1001B000880F991FFC01E859FF4FA591B491FC01EC
:1001C000EE58FF4F859194918FB7F894EC91E22B04
:1001D000EC938FBF0895AF92BF92CF92DF92EF92D0
:1001E000FF920F931F93CF93DF936C017B018B01E1
:1001F000040F151FEB015E01AE18BF08C017D10731
:1002000059F06991D601ED91FC910190F081E02DBA
:10021000C6010995892B79F7C501DF91CF911F910F
:100220000F91FF90EF90DF90CF90BF90AF90089527
:10023000FC01538D448D252F30E0842F90E0821BEC
:10024000930B541710F0CF96089501970895FC0171
:10025000918D828D981761F0A28DAE0FBF2FB11DC9
:100260005D968C91928D9F5F9F73928F90E0089521
:100270008FEF9FEF0895FC01918D828D981731F0DB
:10028000828DE80FF11D858D90E008958FEF9FEF2F
:100290000895FC01918D228D892F90E0805C9F4F05
:1002A000821B91098F739927089585E891E00E9438
:1002B000490121E0892B09F420E0822F089580E094
:1002C00090E0892B29F00E94550181110C940000C7
:1002D0000895FC01A48DA80FB92FB11DA35ABF4FDB
:1002E0002C91848D90E001968F739927848FA68935
:1002F000B7892C93A089B1898C91837080648C9389
:10030000938D848D981306C00288F389E02D808137
:100310008F7D80830895EF92FF920F931F93CF9369
:10032000DF93EC0181E0888F9B8D8C8D98131AC030
:10033000E889F989808185FF15C09FB7F894EE8917
:10034000FF896083E889F989808183708064808374
:100350009FBF81E090E0DF91CF911F910F91FF90BF
:10036000EF900895F62E0B8D10E00F5F1F4F0F7367
:100370001127E02E8C8D8E110CC00FB607FCFACF22
:10038000E889F989808185FFF5CFCE010E94690156
:10039000F1CFEB8DEC0FFD2FF11DE35AFF4FF082F3
:1003A0009FB7F8940B8FEA89FB8980818062CFCF59
:1003B000CF93DF93EC01888D8823B9F0AA89BB899C
:1003C000E889F9898C9185FD03C0808186FD0DC087
:1003D0000FB607FCF7CF8C9185FFF2CF808185FFA8
:1003E000EDCFCE010E946901E9CFDF91CF91089551
:1003F000CF93DF93FC0101900020E9F73197AF0123
:10040000481B590BBC0185E891E00E94EB00EC0110
:1004100042E050E062E171E085E891E00E94EB008B
:100420008C0F9D1FDF91CF9108951F920F920FB6F1
:100430000F9211242F933F938F939F93AF93BF936A
:100440008091810190918201A0918301B0918401FA
:100450003091800123E0230F2D3758F50196A11D1F
:10046000B11D209380018093810190938201A0931C
:100470008301B093840180917C0190917D01A091D2
:100480007E01B0917F010196A11DB11D80937C0179
:1004900090937D01A0937E01B0937F01BF91AF91B6
:1004A0009F918F913F912F910F900FBE0F901F90B2
:1004B000189526E8230F0296A11DB11DD2CF1F92D9
:1004C0000F920FB60F9211242F933F934F935F9388
:1004D0006F937F938F939F93AF93BF93EF93FF930C
:1004E00085E891E00E946901FF91EF91BF91AF9182
:1004F0009F918F917F916F915F914F913F912F913C
:100500000F900FBE0F901F9018951F920F920FB66D
:100510000F9211242F938F939F93EF93FF93E0916A
:100520009501F09196018081E0919B01F0919C01F1
:1005300082FD1BC0908180919E018F5F8F732091FF
:100540009F01821741F0E0919E01F0E0EB57FE4FD2
:10055000958F80939E01FF91EF919F918F912F91A5
:100560000F900FBE0F901F9018958081F4CF789454
:1005700084B5826084BD84B5816084BD85B58260A8
:1005800085BD85B5816085BD80916E008160809359
:100590006E001092810080918100826080938100C2
:1005A00080918100816080938100809180008160D2
:1005B000809380008091B10084608093B10080912D
:1005C000B00081608093B00080917A008460809355
:1005D0007A0080917A00826080937A0080917A001C
:1005E000816080937A0080917A00806880937A009D
:1005F0001092C1000E94CF000E94CF0080E00E94B4
:100600008700E0919501F091960182E08083E0916E
:100610009101F09192011082E0919301F091940187
:100620008FEC808310929D01E0919901F0919A01E5
:1006300086E08083E0919701F0919801808180614C
:100640008083E0919701F091980180818860808398
:10065000E0919701F0919801808180688083E0911A
:100660009701F091980180818F7D808385E191E0F1
:100670000E94F80187E391E00E94F801C0E0D0E019
:1006800085E891E00E944901181619064CF485E8A6
:1006900091E00E9427018F3481F05CF48634B9F038
:1006A000209771F30E945501882351F30E940000A6
:1006B000E7CF863661F08F3699F70E94CF0081E050
:1006C0000E94870089E691E00E94F801E9CF0E942C
:1006D000CF0080E00E94870082E791E0F5CFE5E857
:1006E000F1E01382128288EE93E0A0E0B0E0848310
:1006F0009583A683B78384E091E09183808385EC22
:1007000090E09587848784EC90E09787868780ECDB
:1007100090E0918B808B81EC90E0938B828B82ECCC
:1007200090E0958B848B86EC90E0978B868B118E76
:10073000128E138E148E0895EE0FFF1F0590F49104
:08074000E02D0994F894FFCFAD
:10074800000000008B01EB001801D80149012701C6
:100758003B010D0A002D2D2D204E616E6F202D3E80
:10076800204C6173657220746F67676C65207465CF
:100778007374202D2D2D0053656E6420276F27205C
:10078800746F207475726E206C61736572204F4EA1
:100798002C2027662720746F207475726E206C6178
:1007A800736572204F46462E004C61736572204F68
:0C07B8004E004C61736572204F464600F5
:00000001FF
